:1000000045C0000060C000005EC000005CC0000091
:100010005AC0000058C0000056C0000054C0000084
:1000200052C0000050C000004EC000004CC0000094
:100030004AC0000048C0000046C0000044C00000A4
:1000400042C0000040C00000DBC000009CC00000B7
:100050003AC0000038C0000036C0000034C00000C4
:1000600032C0000030C000002EC000002CC00000D4
:100070002AC0000028C00000CDC0000024C000003D
:10008000B5C0000020C000001EC0000011241FBE2B
:10009000CFEFD0E1DEBFCDBF11E0A0E0B1E0E6E5FB
:1000A000F2E000E00BBF02C007900D92A631B1074D
:1000B000D9F722E0A6E1B1E001C01D92A631B20756
:1000C000E1F709D0C6C09CCF88B38F7088BB87B3D7
:1000D000806F87BB0895F8DFA7D078942FEF80E773
:1000E00092E0215080409040E1F700C0000098B3BA
:1000F00080E1892788BB6DE088E091E0A1D0EECF58
:10010000CF93DF93FC01EB0180E01BC0248130E042
:100110002F5F3F4F2F733078332334F42150310950
:10012000206C3F6F2F5F3F4F9581921761F0A68142
:10013000B7819481A90FB11D98819C9324838F5F0F
:100140002196841718F3DF91CF910895FC018481E3
:100150009581891B805C8F7B1CF48150806C8F5F44
:100160000895FC0194818581981759F0A681B78183
:100170008581A80FB11D8C9195819F5F9F73958399
:1001800008958FEF08951F920F920FB60F921124CA
:100190000BB60F922F933F934F935F936F937F9381
:1001A0008F939F93AF93BF93EF93FF9380E091E082
:1001B000CDDF811104C08AB18F7D8AB904C080E08F
:1001C00091E0CFDF8CB9FF91EF91BF91AF919F91FB
:1001D0008F917F916F915F914F913F912F910F90F0
:1001E0000BBE0F900FBE0F901F9018951F920F928D
:1001F0000FB60F9211240F900FBE0F901F901895FD
:100200001F920F920FB60F9211240F900FBE0F90F6
:100210001F9018951F920F920FB60F9211240F90F6
:100220000FBE0F901F9018951092900088E089B92A
:1002300082E08BB988E18AB986E0809395000895C1
:10024000462FBC0180E091E05BDF8AB180628AB911
:060250000895F894FFCFB1
:10025600000056010000D60148656C6C6F20576F90
:06026600726C640D0A0039
:00000001FF
