S01D0000494F545F50726F6A6563745F4156525F385F4249542E73726563C8
S113000045C0000062C0000060C000005EC0000087
S11300105CC0000077C0000058C0000056C000005B
S113002054C0000052C0000050C000004EC0000088
S11300300C9424154AC0000048C0000046C00000CB
S113004044C0000042C000000C9429160C94EC1526
S11300503CC000003AC0000038C0000036C00000B8
S113006034C0000032C0000030C000002EC00000C8
S11300702CC000002AC000000C94331626C00000D7
S11300800C941F1622C0000020C0000011241FBEC3
S1130090CFEFD0E1DEBFCDBF13E0A0E0B1E0E0E9F7
S11300A0F2E300E00BBF02C007900D92AC39B10738
S11300B0D9F728E0ACE9B3E001C01D92A838B20733
S11300C0E1F70E948E140C9446199ACF42E350E053
S11300D060E070E084E396E00C94DA15089584E31C
S11300E096E00E94E915882361F042E350E060E065
S11300F070E084E396E00E94DA1598B380E18927E2
S113010088BB08951F920F920FB60F9211248F93FC
S11301109F9380919C0390919D03019690939D03DE
S113012080939C039F918F910F900FBE0F901F900F
S1130130189585B7806C85BFEDE6F0E0808180641A
S11301408083089588B38F7088BB87B3806F87BB23
S11301508BB31BBA8AB38E6F8ABB85B315BA84B3CB
S11301608FEF84BBE5E6F0E080818B618083808142
S11301708B7F8083E4E6F0E080818F61808383B1AC
S1130180806183B982B18F7E82B980B58B7F80BD57
S113019089B78F7E89BF8AB78E7F8ABF8AB782600C
S11301A08ABF89B7806189BF08952F923F924F9289
S11301B05F926F927F929F92AF92BF92CF92DF92A3
S11301C0EF92FF920F931F93CF93DF9300D000D051
S11301D000D0CDB7DEB7893008F099C17801890124
S11301E01A017E836D83982EC82ED12C560188E087
S11301F0A80EB11C0024B694A7940794B694A794AF
S11302000794BA2CA02C2501E0E85E1A612C712C0D
S1130210C301B20150D68F7099270297039708F053
S11302207AC12114310409F47BC1F801808190E082
S1130230A0E0B0E0BA2FA92F982F88272181820F40
S1130240911DA11DB11DBA2FA92F982F8827228196
S1130250820F911DA11DB11DBA2FA92F982F882798
S11302602381820F911DA11DB11D89839A83AB83C4
S1130270BC83892B8A2B8B2B29F4C301B2011BD697
S113028082FF53C1E114F10429F4C301B20113D66E
S113029082FF50C12501F8EF4F1AFFE75F0A612C76
S11302A0712CC301B20107D6823429F0823219F0CD
S11302B0823309F044C1F801408150E0542F4427AF
S11302C08181480F511DB5016C5E7F4780E090E04D
S11302D0BFD5F801428150E0542F44278381480F51
S11302E0511DB5016A5E7F4780E090E0B1D5B5014C
S11302F06E5E7F4780E090E0A701AAD5892D4BD69A
S1130300E82EF12CFE2CEE24FF0CFF0CE214F30477
S113031008F07101892D7DD68B01C301B201CBD5C3
S1130320882309F411C181E090E00C2C02C0880FED
S1130330991F0A94E2F72091C0033091C1038223EC
S11303409323892B21F00E151F0508F402C10E1505
S11303501F0500F32701612C712CA30192016D810B
S11303607E81892D02D768E170E880E090E0A3D512
S1130370998368E170E880E090E09DD58A836AE122
S113038070E880E090E097D59B836AE170E880E0B4
S113039090E091D58C8389819A81AB81BC81892B32
S11303A08A2B8B2B39F564E170E880E090E083D5EB
S11303B0998364E170E880E090E07DD58A8366E10A
S11303C070E880E090E077D59B8366E170E880E098
S11303D090E071D58C8340E050E064E170E880E007
S11303E090E036D540E050E066E170E880E090E0CF
S11303F02FD504C019821A821B821C8283012227F2
S11304003327C501805E9F47BC0180E090E0A801CE
S11304101FD5B5016E5D7F4780E090E0A70118D538
S11304202501FEEF4F1AFFE75F0A612C712C40E2B1
S113043050E0C301B2010CD5C301B2013CD5811116
S1130440FBCF25018AEF481A8FE7580A612C712CDB
S1130450C301B20130D59C01332784FF0FC040E1B2
S113046050E0C301B201F4D489819A81AB81BC818B
S1130470892B8A2B8B2B09F446C02DC023FFE1CF97
S113048048E050E0C301B201E3D489819A81AB8191
S1130490BC81892B8A2B8B2B09F45FC0498150E0E6
S11304A0542F44278A81480F511D64E170E880E08D
S11304B090E0CED44B8150E0542F44278C81480FD8
S11304C0511D66E170E880E090E0C2D463EF7FEFF5
S11304D08FEF9FEF46C0498150E0542F44278A8113
S11304E0480F511D64E170E880E090E0B1D44B8185
S11304F050E0542F44278C81480F511D66E170E869
S113050080E090E0A5D4B70180E090E02AC06FEFCE
S11305107FEFCB0126C06BEF7FEF8FEF9FEF21C002
S113052062EF7FEF8FEF9FEF1CC064EF7FEF8FEFE1
S11305309FEF17C065EF7FEF8FEF9FEF12C069EF5A
S11305407FEF8FEF9FEF0DC06CEF7FEF8FEF9FEF8B
S113055008C060E070E0CB0104C063EF7FEF8FEF71
S11305609FEF26960FB6F894DEBF0FBECDBFDF9186
S1130570CF911F910F91FF90EF90DF90CF90BF909C
S1130580AF909F907F906F905F904F903F902F908F
S113059008952F923F924F925F927F928F929F92F3
S11305A0AF92BF92CF92DF92EF92FF920F931F937D
S11305B0CF93DF9300D000D0CDB7DEB7893008F0F9
S11305C0B4C0782EC82ED12C760188E0E80EF11C38
S11305D00024F694E7940794F694E7940794FE2C89
S11305E0E02C470180E8981AA12CB12CC501B40174
S11305F062D48F709927019709F04CC0872D09D5D3
S11306001B012C01872DC7D490E0A0E0B0E0072E99
S11306107AE0880F991FAA1FBB1F7A95D1F7702D16
S1130620281639064A065B06A9F119821A821B822A
S113063081E08C8342E050E0C501B40109D4B701E4
S1130640665F7F4780E090E040E050E301D44701DB
S11306508EEF881A8FE7980AA12CB12C41E050E064
S1130660C501B401F5D3C501B40125D48111FBCF73
S1130670B701685F7F4780E090E01DD48232C1F704
S113068000E010E39E012F5F3F4F41E050E0B901CD
S1130690872D8BDD47018EEF881A8FE7980AA12CEE
S11306A0B12C40E150E0C501B401D2D3C501B4017D
S11306B002D48111FBCFB7016A5F7F4780E090E0ED
S11306C04FEF50E0C5D381E090E002C0880F991F3E
S11306D07A94E2F7809590952091C0033091C103FC
S11306E0282339233093C1032093C0032091BE03F0
S11306F03091BF03822393239093BF038093BE035F
S1130700F601EE0FFF1FE255FC4F11821082F60135
S1130710EA55FC4F1082B701685F7F4780E090E0A4
S1130720CAD38111F8CF81E001C08FEF0F900F90F1
S11307300F900F90DF91CF911F910F91FF90EF9049
S1130740DF90CF90BF90AF909F908F907F905F90FD
S11307504F903F902F9008954F925F926F927F92A7
S1130760AF92BF92CF92DF92EF92FF920F931F93BB
S1130770CF93DF9300D000D0CDB7DEB7F82E162F7D
S11307803A01E22E28E0281708F4C8C0613029F0A5
S113079008F4C6C0653018F1C3C068E170E880E0B1
S11307A090E089D3998368E170E880E090E083D396
S11307B08A836AE170E880E090E07DD39B836AE1FC
S11307C070E880E090E077D38C8389819A81AB8153
S11307D0BC81892B8A2B8B2B11F48DEFA8C0E2FCF2
S11307E0A1C0EE2071F0113019F0123029F009C0C7
S11307F08E2D837231F498C0E5FE03C0EE200CF018
S113080095C08F2DC6DE8E2D807F812B4E2D42709C
S113081050E05695542F442757954795CF2CD12C0B
S11308208601085F1F4F00241695079507941695B7
S113083007950794102F002DB8017058482B80E0BD
S113084090E006D36114710491F4609000017090FB
S11308500101C30101969093010180930001409628
S113086031F480E090EC9093010180930001B80191
S1130870665F7F4780E090E0A301EAD228018EEF13
S1130880481A8FE7580A612C712C41E050E0C301EB
S1130890B201DED2C301B2010ED38111FBCF81E0DC
S11308A090E00F2C02C0880F991F0A94E2F78095FC
S11308B090952091C0033091C10328233923E0FA95
S11308C0AA24A0F8B12C0F2C02C0AA0CBB1C0A94B9
S11308D0E2F7A22AB32AB092C103A092C0032091E6
S11308E0BE033091BF03822393239093BF0380936D
S11308F0BE03F601EE0FFF1FE255FC4F118210827A
S1130900F601EA55FC4F1082B801685F7F4780E02A
S113091090E0D1D28823C1F38F2D09C08FEF07C097
S11309208BEF05C08AEF03C08AEF01C08AEF0F90F6
S11309300F900F900F90DF91CF911F910F91FF9027
S1130940EF90DF90CF90BF90AF907F906F905F90CB
S11309504F9008952F923F924F925F926F927F92A1
S11309608F929F92AF92BF92CF92DF92EF92FF92BB
S11309700F931F93CF93DF93CDB7DEB764970FB672
S1130980F894DEBF0FBECDBF582E3B015A013A8703
S113099029871E870D8728E0281708F42AC280912A
S11309A0008090E0982F8827209101801C01220E5E
S11309B0311CC52CD12C760138E0E30EF11C002447
S11309C0F694E7940794F694E7940794FE2CE02CAD
S11309D0B701705880E090E06ED24C018F70992777
S11309E00297039708F009C2A114B10409F40AC2DA
S11309F0F601EE0FFF1FE255FC4F80819181892B98
S1130A0021F5852D50D38B01B701685F7F4780E0C6
S1130A1090E051D2882309F4FAC181E090E00C2CD3
S1130A2002C0880F991F0A94E2F72091C003309105
S1130A30C10382239323892B21F00115110509F4A5
S1130A40EBC101151105E9F202C000E010E047E036
S1130A508422992453E08516910409F430C184E07A
S1130A608816910409F4B6C092E08916910409F03D
S1130A7080C1F601EE0FFF1FE255FC4F808191818A
S1130A80892B09F06FC028E030E040E050E0BE015F
S1130A906F5F7F4F852DB2D3C7018E5F9F479C0147
S1130AA040E050E0298B3A8B4B8B5C8B40E450E068
S1130AB069897A898B899C89CBD169897A898B895F
S1130AC09C89F9D18111F9CF30FE24C08A81E9854E
S1130AD0FA858083898181838C8182838B8183835E
S1130AE08E8190E0982F88272D81820F911DED85AE
S1130AF0FE8591838083888590E0F601EE0FFF1FC9
S1130B00E255FC4F982F88272F81820F911D9183E6
S1130B10808323C08981E985FA8580838A818183E2
S1130B208B8182838C8183838D8190E0982F8827A9
S1130B302E81820F911DED85FE85918380838F81A7
S1130B4090E0F601EE0FFF1FE255FC4F982F882727
S1130B502885820F911D9183808380E8F601EA55F0
S1130B60FC4F8083F601EE0FFF1FE255FC4F80809F
S1130B709180A814B90408F44501F601EA55FC4F24
S1130B80808181FF1EC0F601E256FC4F8081F30193
S1130B908083840101501109F601EE0FFF1FE25515
S1130BA0FC4F80819181019791838083F601EA55FE
S1130BB0FC4F80818D7F808393012F5F3F4F3901EC
S1130BC001C08401980140E050E0B301852D16D3A3
S1130BD05401DBC0F601EE0FFF1FE255FC4F80818C
S1130BE09181892B09F059C022E030E040E050E0C7
S1130BF0BE016F5F7F4F852D01D3C7018E5F9F4775
S1130C009C0140E050E029873A874B875C8740E4A9
S1130C1050E069857A858B859C851AD169857A85AA
S1130C208B859C8548D18111F9CF898190E0F601AB
S1130C30EE0FFF1FE255FC4F982F88272A81820F61
S1130C40911D02979183808380FF09C00397F60169
S1130C50EE0FFF1FE255FC4F9183808308C0F6011D
S1130C60EE0FFF1FE255FC4F049791838083F6013A
S1130C70EE0FFF1FE255FC4F808191818B3E954022
S1130C8038F0852D86DC67E17CEF8FEF9FEFC7C0DE
S1130C9080E8F601EA55FC4F8083F601EE0FFF1F52
S1130CA0E255FC4F00811181A016B10608F48501BC
S1130CB0980140E050E0B301852DA0D266C0F60152
S1130CC0EE0FFF1FE255FC4F80819181892B09F0C3
S1130CD03EC026E030E040E050E0BE016F5F7F4F51
S1130CE0852D8CD2C7018E5F9F479C0140E050E068
S1130CF02D873E874F87588B40E450E06D857E8575
S1130D008F859889A5D06D857E858F859889D3D068
S1130D108111F9CF8981E985FA8580838A8181836C
S1130D208B8182838C8183838D8190E0F601EE0F29
S1130D30FF1FE255FC4F982F88272E81820F911DAB
S1130D409183808380E8F601EA55FC4F8083F601A5
S1130D50EE0FFF1FE255FC4F00811181A016B10672
S1130D6008F48501980140E050E0B301852D46D296
S1130D700CC0A80160E070E0852D91D2F601EE0F61
S1130D80FF1FE255FC4F118300832701FEEF4F1A2A
S1130D90FFE75F0A612C712C40E450E0C301B2010B
S1130DA057D0C301B20187D08111FBCFF601EE0FFA
S1130DB0FF1FE255FC4F80819181801B910B918331
S1130DC08083892B71F0F601EA55FC4F80818160A4
S1130DD0808300FF0AC0F601EA55FC4F82608083DD
S1130DE004C0F601EA55FC4F1082B50180E090E0A2
S1130DF016C06FEF7FEFCB0112C06BEF7FEF8FEF69
S1130E009FEF0DC062EF7FEF8FEF9FEF08C06CEF95
S1130E107FEF8FEF9FEF03C060E070E0CB0164963B
S1130E200FB6F894DEBF0FBECDBFDF91CF911F91F7
S1130E300F91FF90EF90DF90CF90BF90AF909F9075
S1130E408F907F906F905F904F903F902F90089578
S1130E50CF92DF92EF92FF920F931F93CF93DF9382
S1130E606B017C01142F052FC2E0D1E0EA85FB85DC
S1130E700995EE85FF850995EC89FD89402FC70109
S1130E80B6010995EC89FD89C701B6016F5F7F4FF3
S1130E908F4F9F4F412F0995E889F9890995EC8572
S1130EA0FD850995DF91CF911F910F91FF90EF90F0
S1130EB0DF90CF900895CF92DF92EF92FF920F933D
S1130EC01F93CF93DF936B017C0102E011E0D80103
S1130ED01A96ED91FC911B970995D8011E96ED91F8
S1130EE0FC911F970995D8015296ED91FC91539767
S1130EF0C701B6010995C82FD0E0DC2FCC27D80153
S1130F005296ED91FC915397C701B6016F5F7F4FE5
S1130F108F4F9F4F0995C82BD8015096ED91FC91A6
S1130F2051970995D8011C96ED91FC911D9709954F
S1130F30CE01DF91CF911F910F91FF90EF90DF9041
S1130F40CF900895CF92DF92EF92FF92CF93DF93E9
S1130F50D82FC62F8E7FC82ED12C80EEC81A8FE7CB
S1130F60D80AE12CF12CC701B601A5DFD0FF04C0DB
S1130F70AC0144274C2B05C04C2F50E0542F442780
S1130F80482BC701B60164DFDF91CF91FF90EF904A
S1130F90DF90CF90089580FF09C08E7F682F70E0A6
S1130FA0605E7F4780E090E086CF08958E7F682F53
S1130FB070E0605E7F4780E090E07DDF892F0895D8
S1130FC0CF92DF92EF92FF92CF93DF93D82FC62F69
S1130FD08E7FC82ED12C88EDC81A8FE7D80AE12C51
S1130FE0F12CC701B60167DFD0FF04C0AC01442770
S1130FF04C2B05C04C2F50E0542F4427482BC701DD
S1131000B60126DFDF91CF91FF90EF90DF90CF9074
S113101008958F929F92AF92BF92CF92DF92EF92F8
S1131020FF920F931F93CF93C82FC12CD12C76011D
S1131030C39402C06B017C010C2F10E0085F1F4FAA
S11310400024169507950794169507950794102F75
S1131050002DB8016C5D7F4780E090E02CDFA0E0BC
S1131060B0E05C0199248824B8016A5D7F4780E080
S113107090E021DFA0E0B0E0BC01CD01682979292E
S11310808A299B29C616D706E806F90699F6CF9150
S11310901F910F91FF90EF90DF90CF90BF90AF9092
S11310A09F908F9008957F928F929F92AF92BF925C
S11310B0CF92DF92EF92FF920F931F93CF93DF9320
S11310C0782EC12CD12C7601C39402C06C017D0111
S11310D0072D10E0E80128960024D695C7950794BB
S11310E0D695C7950794DC2FC02DBE01685D7F4758
S11310F080E090E0E0DEA0E0B0E05C019924882488
S1131100C65DDF47BE0180E090E0D5DEA0E0B0E040
S113111088299929AA29BB29C816D906EA06FB06F3
S1131120A9F6F801EA55FC4F208121FF05C041E0F2
S113113050E060E070E003C040E050E0BA018A0192
S11311409B01080F191F2A1F3B1FC901B801DF911A
S1131150CF911F910F91FF90EF90DF90CF90BF90B0
S1131160AF909F908F907F9008958F929F92AF92AF
S1131170BF92CF92DF92EF92FF921F93CF93DF93B0
S1131180211531054105510569F149015A01EB0168
S1131190182FC12CD12C760120C0FE01EC0DFD1DB1
S11311A0408150E0542F44278181612F70E0685FB3
S11311B07F4F0024769567950794769567950794F5
S11311C0762F602D625D7F47482B80E090E040DE03
S11311D082E0C80ED11CE11CF11CC814D904EA0435
S11311E0FB04D8F2DF91CF911F91FF90EF90DF9035
S11311F0CF90BF90AF909F908F9008958F929F92C1
S1131200AF92BF92CF92DF92EF92FF921F93CF9350
S1131210DF932115310541055105A9F149015A0111
S1131220EB01182FC12CD12C760180E022C0C0FC28
S113123017C0612F70E0685F7F4F00247695679533
S11312400794769567950794762F602D605D7F47A8
S113125080E090E030DEFE01EC0DFD1D908304C0C3
S1131260FE01EC0DFD1D80839FEFC91AD90AE90A1E
S1131270F90AC814D904EA04FB04C8F2E12FF0E027
S1131280E256FC4F8083DF91CF911F91FF90EF9046
S1131290DF90CF90BF90AF909F908F9008958F92E2
S11312A09F92AF92BF92CF92DF92EF92FF92CF9331
S11312B0C82F6A017B01812C912C540117C06C2F1B
S11312C070E0685F7F4F0024769567950794769564
S11312D067950794762F602D605D7F4780E090E0EE
S11312E0EADD82E0880E911CA11CB11C8C149D04C3
S11312F0AE04BF0420F3CF91FF90EF90DF90CF9026
S1131300BF90AF909F908F90089508950895089589
S11313100895FB0180810895FB014083089500979F
S113132019F06115710559F4E2E0F1E085E899E0FE
S11313309387828786E899E0958784870895E2E019
S1131340F1E0938782877587648708956F927F920F
S11313508F929F92AF92BF92CF92DF92EF92FF92C1
S11313600F931F93CF93DF9300D000D000D0CDB75D
S1131370DEB768E070E880E090E09DDD998368E086
S113138070E880E090E097DD8A836AE070E880E0AE
S113139090E091DD9B836AE070E880E090E08BDD73
S11313A08C836CE070E880E090E085DD9D836CE0E8
S11313B070E880E090E07FDD8E8360E170E880E09B
S11313C090E079DD792E60E170E880E090E073DDF3
S11313D0682E62E170E880E090E06DDD992E62E1B4
S11313E070E880E090E067DD882E64E170E880E0DA
S11313F090E061DDB92E64E170E880E090E05BDDAF
S1131400A82E66E170E880E090E055DDE92E66E103
S113141070E880E090E04FDDC82E68E170E880E07D
S113142090E049DD092F68E170E880E090E043DD59
S1131430D82E6AE170E880E090E03DDD192F6AE182
S113144070E880E090E037DDF82E1092008080E8AC
S113145080930180498150E0542F44278A81480FAA
S1131460511D68E070E880E090E0F2DC4B8150E0D0
S1131470542F44278C81480F511D6AE070E880E0A6
S113148090E0E6DC4D8150E0542F44278E81480FD4
S1131490511D6CE070E880E090E0DADC472D50E00C
S11314A0542F4427460D511D60E170E880E090E020
S11314B0CFDC492D50E0542F4427480D511D62E1E3
S11314C070E880E090E0C4DC4B2D50E0542F4427BA
S11314D04A0D511D64E170E880E090E0B9DC4E2DC6
S11314E050E0542F44274C0D511D66E170E880E014
S11314F090E0AEDC402F50E0542F44274D0D511D99
S113150068E170E880E090E0A3DC412F50E0542FC4
S113151044274F0D511D6AE170E880E090E098DCAB
S113152026960FB6F894DEBF0FBECDBFDF91CF91E4
S11315301F910F91FF90EF90DF90CF90BF90AF90ED
S11315409F908F907F906F900895EF92FF920F93EA
S11315501F93CF937C018B01F9DEE114F10469F44C
S11315601FC0F701E80FF11D87FDFA9590819134B2
S113157008F03BC0290F8F5F02C020E080E0883074
S113158084F32770A1F5C0E009C0F701EC0FF11D49
S1131590C7FDFA9560818C2FD5DCCF5FC830ACF3E2
S11315A00115110569F480E027C0F801E80FF11D69
S11315B087FDFA9590819134E0F4290F8F5F02C082
S11315C020E080E088308CF32770A9F4C0E009C0E3
S11315D0F801EC0FF11DC7FDFA9560818C2FF0DC4A
S11315E0CF5FC830ACF380E007C08FEF05C08FEF4A
S11315F003C08FEF01C08FEFCF911F910F91FF9028
S1131600EF900895CF93DF93C4EDD3E0488150E089
S1131610542F44278981480F511D68E170E880E008
S113162090E016DC4A8150E0542F44278B81480F08
S1131630511D6AE170E880E090E00ADCCCECD3E074
S1131640488150E0542F44278981480F511D64E19B
S113165070E880E090E0FCDB4A8150E0542F44279E
S11316608B81480F511D66E170E880E090E0F0DB6B
S1131670C0EDD3E0488150E0542F44278981480FBE
S1131680511D60E170E880E090E0E2DB4A8150E0C7
S1131690542F44278B81480F511D62E170E880E08C
S11316A090E0D6DBDF91CF910895CF93DF93109232
S11316B0008080E880930180A5DFCCE5D6E04881F6
S11316C050E0542F44278981480F511D68E070E889
S11316D080E090E0BDDB4A8150E0542F44278B81A9
S11316E0480F511D6AE070E880E090E0B1DB4C8166
S11316F050E0542F44278D81480F511D6CE070E851
S113170080E090E0A5DBDF91CF910895CF93DF9344
S11317101092008080E880930180CCE5D6E0488177
S113172050E0542F44278981480F511D68E070E828
S113173080E090E08DDB4A8150E0542F44278B8178
S1131740480F511D6AE070E880E090E081DB4C8135
S113175050E0542F44278D81480F511D6CE070E8F0
S113176080E090E075DBDF91CF91089568E070E848
S113177080E090E0A0DB68E070E880E090E09BDB34
S11317806AE070E880E090E096DB6AE070E880E070
S113179090E091DB6CE070E880E090E08CDB6CE042
S11317A070E880E090E087DBE0916E06F0916F06D0
S11317B081E08083E0916E06F0916F068183A091B1
S11317C06E06B0916F0686E012968C93129713966C
S11317D01C9213978091620690916306209164068F
S11317E03091650614963C93149715962C9315978F
S11317F016969C93169717968C93179719961C9286
S11318001E92189780E81A968C931A971B961C922E
S11318101B971C961C921C971D961C921D971E9636
S11318201C921E971F961C921F9750961C925097BD
S113183051961C92519752961C92529753961C9211
S1131840539754961C92549755961C9255975696B6
S11318501C92569757961C92579758961C925897D5
S113186059961C9259975A961C925A975B961C92B9
S11318705B97ECE5F6E080815C968C935C978181C4
S11318805D968C935D9782815E968C935E9783813F
S11318905F968C935F97848190968C9390978581C3
S11318A091968C93919786E005C0FD01E80FF11D98
S11318B0148E8F5F8031C8F380E005C0FD01E80F0E
S11318C0F11D14A68F5F8034C8F380E007C0FD01CA
S11318D0E80FF11DE459FF4F10828F5F8823BCF796
S11318E0FD01E451FF4F83E68083319692E89083B3
S11318F0319693E59083A151BF4F8C9308950F9334
S11319001F93CF93DF9300D000D0CDB7DEB72EDF87
S1131910A0916E06B0916F061A961C921A971B96A8
S11319201C921B97FD01E051FF4F85E380833196A4
S113193091E09083319684E0808331962DE3208377
S1131940319627E02083319690834CE556E0FA01E6
S113195090819D012A503F4FF9019083FA019181B2
S11319602F5F3F4FF9019083FA0192812F5F3F4F20
S1131970F9019083FA0193812F5F3F4FF90190831E
S1131980FA0194812F5F3F4FF9019083FA01958109
S1131990FD01E550FF4F9083319692E39083319699
S11319A0808344ED53E0FA0190812C5F3F4FF901AD
S11319B09083FA0191812F5F3F4FF9019083FA01DF
S11319C092812F5F3F4FF9019083FA019381FD01CA
S11319D0EF5FFE4F9083319696E390833196808338
S11319E04AE656E0FA012081CD018C5F9E4FFC014E
S11319F02083FA0121810196FC012083FA012281CE
S1131A000196FC012083FA018381FD01E95FFE4F09
S1131A10808331968FEF80838DE190E007C0FD01D4
S1131A20E80FF91FE451FF4F108201968833F1E06B
S1131A309F07ACF38FEF89838A838B838C838AE53A
S1131A4091E00E94691660916E0670916F0603E43E
S1131A5010E09E012F5F3F4F44E252E080917006F8
S1131A600E94D5000F900F900F900F90DF91CF91AF
S1131A701F910F910895CF92DF92EF92FF920F93EF
S1131A801F93CF93DF93CDB7DEB728970FB6F894A3
S1131A90DEBF0FBECDBF8091700605DB61157105F9
S1131AA009F440C1E0916E06F0916F068E01095F62
S1131AB01F4F9E012F5F3F4FAB01BF018091700606
S1131AC00E94AA046B017C013C812B819A8189814B
S1131AD0DF92CF9248854F934F814F931F923F934C
S1131AE01F922F931F929F931F928F9381E791E0F0
S1131AF09F938F930E9456168F8198850FB6F89402
S1131B00DEBF0FBECDBF8334910509F009C1E0915A
S1131B106E06F0916F06948D80915C06981319C03F
S1131B20958D80915D06981314C0968D80915E0604
S1131B3098130FC0978D80915F0698130AC090A1E7
S1131B4080916006981305C091A180916106981751
S1131B5031F080EA91E00E94691680E0E4C090913F
S1131B606A0691110CC080916B06811108C08091A6
S1131B706C06811104C080916D06882359F1898116
S1131B8098130FC02A8190916B0629130AC02B81E8
S1131B9090916C06291305C02C8190916D0629172C
S1131BA0C9F09091660689130FC09A8180916706E7
S1131BB098130AC09B8180916806981305C09C8184
S1131BC080916906981731F08EEC91E00E946916B5
S1131BD080E0A9C0E051FF4F30EFC31AD108CE0E08
S1131BE0DF1E80E098C09081963009F444C030F440
S1131BF09130B9F088F0933029F184C0953371F0B5
S1131C0020F4933309F450C07DC0963309F45AC0CC
S1131C109F3F09F47FC076C031967DC082813396A0
S1131C207AC09281ACECB3E09C93938111969C931F
S1131C301197948112969C931297958113969C9375
S1131C40369669C091812281A0EDB3E02C93238163
S1131C5011962C931197248112962C9312979F011D
S1131C602A5F3F4F458113964C93E92FF0E0349758
S1131C70E20FF31F50C091812281A8ECB3E02C93B2
S1131C80238111962C931197248112962C931297E9
S1131C909F012A5F3F4F458113964C93E92FF0E053
S1131CA03497E20FF31F37C04AE050E060E070E081
S1131CB040932E0150932F016093300170933101B2
S1131CC0369629C09281AAE6B6E09C939381119638
S1131CD09C931197948112969C93129795811396D5
S1131CE09C939981A6E6B6E09C939A8111969C9365
S1131CF011979B8112969C9312979C8113969C93A7
S1131D00369609C09F012E5F3F4F9181F901E90F7B
S1131D10F11D01C0F601EC15FD0508F464CF03C004
S1131D2080E001C080E028960FB6F894DEBF0FBEB5
S1131D30CDBFDF91CF911F910F91FF90EF90DF9076
S1131D40CF900895CF92DF92EF92FF920F931F935B
S1131D50CF93DF936EE170E880E090E0ACD8EC01C3
S1131D6043E050E06EE170E880E090E071D808E86C
S1131D7013E124ED33E041E150E06CE072E0809146
S1131D8070060E94D5006B017C01AE0155276EE1FF
S1131D9070E880E090E05CD883EFC8168FEFD80637
S1131DA0E806F80629F48EE192E093D781E01AC0A0
S1131DB0A6DD4091C2035091C3036091C4037091A6
S1131DC0C5038091C2039091C303A091C403B09151
S1131DD0C503841B950BA60BB70B0297A105B10590
S1131DE080F380E0DF91CF911F910F91FF90EF90EE
S1131DF0DF90CF9008951092C2031092C303109203
S1131E00C4031092C5038AE090E0A0E0B0E08093A0
S1131E102A0190932B01A0932C01B0932D011092D1
S1131E20C6030895FF920F931F93CF93DF93F82E69
S1131E308B0168E070E880E090E03DD8CCE5D6E026
S1131E40988368E070E880E090E035D889836AE0A0
S1131E5070E880E090E02FD89A836AE070E880E030
S1131E6090E029D88B836CE070E880E090E023D880
S1131E709C836CE070E880E090E01DD88D835881ED
S1131E8099814A813B812C81952B942B932B922B06
S1131E90892B71F581E0888388E089838CED8A83BE
S1131EA084E18B8384ED8C8387E48D8348E051E067
S1131EB068E070E880E090E00E9428074A8150E0E2
S1131EC0542F44278B81480F511D6AE070E880E04D
S1131ED090E00E9428074C8150E0542F44278D81C4
S1131EE0480F511D6CE070E880E090E00E942807E4
S1131EF0F092700610936F0600936E06ECE5F6E020
S1131F004381842F90E0A0E0B0E08858994AAB4C1C
S1131F10BD4E3481830F911DA11DB11D2581820FFA
S1131F20911DA11DB11D34272327820F911DA11DD1
S1131F30B11D8093620690936306A0936406B093E8
S1131F40650640E050E068E170E880E090E00E94BF
S1131F50280740E050E06AE170E880E090E00E94E9
S1131F60280740E050E060E170E880E090E00E94E3
S1131F70280740E050E062E170E880E090E00E94D1
S1131F80280739DF1092C703DF91CF911F910F917A
S1131F90FF9008958091C2039091C303A091C4035C
S1131FA0B091C5030196A11DB11D8093C203909306
S1131FB0C303A093C403B093C50308958F708A30FC
S1131FC010F4805D0895895C08955F926F927F920A
S1131FD08F929F92AF92BF92CF92DF92EF92FF9235
S1131FE00F931F93CF93DF9300D000D0CDB7DEB70C
S1131FF0BDDBEAE6F6E01082118212821382E6E685
S1132000F6E01082118212821382E0906E06F09044
S11320106F06F701E051FF4F85E38083319681E03D
S113202080833196808331969DE39083319697E047
S1132030908331968083ECE5F6E08081D701AA5045
S1132040BF4F8C93818111968C93828111968C93CE
S1132050538011965C92648011966C927580F7019E
S1132060E550FF4F708231968CE080833196108268
S113207002E110E0C12CD12C0BC0F701E00FF11FDD
S1132080E451FF4F80838FEFC81AD80A0F5F1F4FA8
S1132090F601EE5DFE4F80818111EFCF48018FEF95
S11320A0881A980A852D82958F7088DFF701E00FD2
S11320B0F11FE451FF4F8083580182E0A80EB11C48
S11320C0852D7CDF8E0C9F1CF401E451FF4F80832F
S11320D0480183E0880E911C862D82958F706EDFF7
S11320E0AE0CBF1CF501E451FF4F8083580184E01E
S11320F0A80EB11C862D62DF8E0C9F1CF401E451E6
S1132100FF4F8083480185E0880E911C872D8295BE
S11321108F7054DFAE0CBF1CF501E451FF4F808378
S1132120580186E0A80EB11C872D48DF8E0C9F1C39
S1132130F401E451FF4F8083F501EC19FD09379751
S1132140EE0DFF1DE451FF4F86E08C0D8083D80116
S11321501796AE0CBF1CF501E451FF4F87E3808353
S1132160F8013896AE0DBF1DA451BF4F86E08C9385
S1132170D8011996EE0DFF1DE451FF4F91E09083B5
S1132180F8013A96AE0DBF1DA451BF4F93E09C9346
S1132190D8011B96EE0DFF1DE451FF4F8083F8011B
S11321A03C96AE0DBF1DA451BF4F8FE08C93D80158
S11321B01D96EE0DFF1DE451FF4F8AE38083F80165
S11321C03E96AE0DBF1DA451BF4F8BE38C93015FB0
S11321D01F4FEE0DFF1DE451FF4F8FEF808308C0AA
S11321E0F701E00FF11FE451FF4F10820F5F1F4F03
S11321F0083381E01807A0F38FEF89838A838B83E8
S11322008C8388E392E065D560916E0670916F06C9
S113221003E410E09E012F5F3F4F44E252E08091BF
S113222070060E94D5000F900F900F900F90DF91D1
S1132230CF911F910F91FF90EF90DF90CF90BF90BF
S1132240AF909F908F907F906F905F9008955F9272
S11322506F927F928F929F92AF92BF92CF92DF92B2
S1132260EF92FF920F931F93CF93DF9300D000D090
S1132270CDB7DEB77BDA8091C7038350823000F597
S1132280E0916E06F0916F0612861386A4EDB3E01A
S11322908C91848711968C911197858712968C91D5
S11322A01297868713968C918787EAE6F6E08081F9
S11322B0898381818A8382818B8383818C8305C016
S11322C08FEF89838A838B838C83E0906E06F090F2
S11322D06F06F701E051FF4F85E38083319681E07B
S11322E08083319693E0908331969DE39083319679
S11322F097E0908331968083ECE5F6E08081D70106
S1132300AA50BF4F8C93818111968C938281119630
S11323108C93538011965C92648011966C927580B4
S1132320F701E550FF4F70828C818F3F71F582E396
S11323303196808384E031968083E4EDF3E09081EC
S113234014969C93918111969C93928111969C93DF
S11323509381F701EF5FFE4F908396E3319690836C
S113236031968083EAE6F6E0808114968C9381812D
S113237011968C93828111968C938381F701E95F86
S1132380FE4F80830CE110E002C000E110E0F80190
S11323903196D701A00FB11FA451BF4F8CE08C938D
S11323A00E5F1F4FEE0DFF1DE451FF4F1082C12C35
S11323B0D12C0BC0F701E00FF11FE451FF4F8083D4
S11323C08FEFC81AD80A0F5F1F4FF601EE5DFE4F5C
S11323D080818111EFCF48018FEF881A980A852DEB
S11323E082958F70EBDDF701E00FF11FE451FF4F91
S11323F08083580182E0A80EB11C852DDFDD8E0C90
S11324009F1CF401E451FF4F8083480183E0880E50
S1132410911C862D82958F70D1DDAE0CBF1CF50109
S1132420E451FF4F8083580184E0A80EB11C862D2F
S1132430C5DD8E0C9F1CF401E451FF4F80834801DD
S113244085E0880E911C872D82958F70B7DDAE0CC8
S1132450BF1CF501E451FF4F8083580186E0A80EAC
S1132460B11C872DABDD8E0C9F1CF401E451FF4F92
S11324708083F501EC19FD093797EE0DFF1DE4513A
S1132480FF4F86E08C0D8083D8011796AE0CBF1CDD
S1132490F501E451FF4F87E38083F8013896AE0DD0
S11324A0BF1DA451BF4F88E08C93D8011996EE0D3F
S11324B0FF1DE451FF4F81E08083F8013A96AE0D91
S11324C0BF1DA451BF4F83E08C93D8011B96EE0D22
S11324D0FF1DE451FF4F86E08083F8013C96AE0D6A
S11324E0BF1DA451BF4F8FE08C93D8011D96EE0DF4
S11324F0FF1DE451FF4F8AE38083F8013E96AE0D41
S1132500BF1DA451BF4F8BE38C93D8011F96EE0DD2
S1132510FF1DE451FF4F8FE18083F8017096AE0DEB
S1132520BF1DA451BF4F81E28C93EE0DFF1DE451FA
S1132530FF4F8FEF80830F5E1F4F08C0F701E00F3E
S1132540F11FE451FF4F10820F5F1F4F083381E0EA
S11325501807A4F38EE492E0BCD360916E067091E8
S11325606F0603E410E09E012F5F3F4F44E252E008
S1132570809170060E94D5000F900F900F900F90DD
S1132580DF91CF911F910F91FF90EF90DF90CF904B
S1132590BF90AF909F908F907F906F905F900895C1
S11325A0CF938091C60382300CF04EC040912A0133
S11325B050912B0160912C0170912D018091C203E7
S11325C09091C303A091C403B091C5034817590760
S11325D06A077B0708F04DC08091C703823049F039
S11325E0843061F0813071F483E692E072D3EDDCE3
S11325F009C08CE892E06DD32ADE04C084EB92E03B
S113260068D325DE1092C2031092C3031092C40350
S11326101092C5038091C2039091C303A091C40397
S1132620B091C5030A96A11DB11D80932A01909310
S11326302B01A0932C01B0932D018091C6038F5FD1
S11326408093C603C1E016C08091C703823041F075
S1132650843031F0813051F41092C703C0E007C0D8
S1132660B4DC81E08093C703C1E001C0C1E0C3DBF7
S113267001C0C1E08C2FCF910895CF938091C703FF
S1132680863009F411C16091700670E0685F7F4F75
S11326900024769567950794769567950794762F29
S11326A0602D685F7F4780E090E00E945B07823284
S11326B041F020E044E450E062E0809170060E9422
S11326C0AC03D9D99091C7039230D1F12CF499235A
S11326D051F0913099F0EAC0933009F45AC0943023
S11326E009F4A5C0E3C0E4EDF3E010821182128284
S11326F013826BDC81E08093C703DDC08230F1F488
S11327008EED92E0E6D2A0916E06B0916F065096DF
S11327108C915097E4EDF3E0808351968C9151971E
S1132720818352968C915297828353968C918383A2
S11327308EDD82E08093C70381E0BDC031DFBBC082
S11327408530D9F484EF92E0C4D2FCDA882359F0BE
S1132750E0912001F091210109954DDB83E0809304
S1132760C70381E0A8C047DBE0911C01F0911D0183
S113277009951092C70381E09EC0863041F488E039
S113278093E0A7D238DB81E08093C70394C008DFCD
S113279092C080912E0190912F01A0913001B091AF
S11327A031018F3F2FEF9207A207B20709F480C0CF
S11327B0B695A795979587954091C2035091C30309
S11327C06091C4037091C50384179507A607B707E2
S11327D008F070C08DE193E07CD2A4EDB3E08C915D
S11327E0E8EDF3E0808311968C9111978183129622
S11327F08C911297828313968C91838380916206C5
S113280090916306A0916406B09165060196A11D9E
S1132810B11D8093620690936306A0936406B093FF
S1132820650615DDE8DA84E08093C70344C085308B
S113283071F51092C6039091D8038091D403981334
S113284012C09091D9038091D50398130CC0909134
S1132850DA038091D603981306C09091DB0380912C
S1132860D703981751F0E0911E01F0911F010995CB
S11328708AE393E02ED2C3E004C088E493E029D233
S1132880C4E0B9DA83E08093C7038C2F14C0863088
S113289049F48BE593E01DD2AEDA81E08093C7035F
S11328A084E009C07DDE07C085E005C081E003C087
S11328B084E001C084E0CF91089580937106709301
S11328C077066093760682E291E19093790680938D
S11328D0780608958091720690917306A09174060B
S11328E0B09175060196A11DB11D80937206909357
S11328F07306A0937406B09375060895CF93DF937F
S11329001F92CDB7DEB7898361E0CE010196C1D1B4
S113291080E090E00F90DF91CF9108958FE097E2EF
S11329200197F1F700C000000E94A200A6D129D1AE
S11329300E94990082E391E0909385088093840833
S113294062E576E184E596E10E948F0960E471E036
S113295088E491E00E94A50A78940E9466006CEDD8
S113296073E081E090E0A9DF6CED73E082E05ADA75
S113297048EE53E060E070E08EE396E01BD187E818
S113298093E0A7D10E946F0078DE8EE396E021D118
S11329908823C1F348EE53E060E070E08EE396E0F4
S11329A009D1F8DA97DFEECF0F931F93CF93DF931C
S11329B0FC01C0E0D0E01AC0248135812F5F3F4F75
S11329C031708681978128173907A9F0A085B185D0
S11329D0848195818D01080F191FDB018C91D80129
S11329E08C933583248321966F5F7F4F842F90E0EF
S11329F0C817D90708F3DF91CF911F910F9108955C
S1132A00FC012481358186819781A901481B590BDA
S1132A10CA0191700895FC012481358186819781D2
S1132A202817390779F0A085B18586819781A80F89
S1132A30B91F8C91268137812F5F3F4F31703783C7
S1132A40268308958FEF08951F920F920FB60F9269
S1132A5011240BB60F92CF92DF92EF92FF920F9355
S1132A601F932F933F934F938F939F93EF93FF93D2
S1132A7040E06CC0842F90E0FC01EE0FFF1F9C012E
S1132A80220F331F220F331F220F331FE20FF31FB6
S1132A90EC5CF94F2085222389F09C01220F331F1F
S1132AA0220F331F220F331FFC01EE0FFF1FE20F13
S1132AB0F31FEC5CF94F2185211147C09C01220FC3
S1132AC0331F220F331F220F331FFC01EE0FFF1F92
S1132AD0E20FF31FEC5CF94F21852223B1F19C0135
S1132AE0220F331F220F331F220F331FFC01EE0F5F
S1132AF0FF1FE20FF31FEC5CF94F0081118122816B
S1132B0033810F5F1F4F2F4F3F4F00831183228369
S1132B103383C480D580E680F7800C151D052E050F
S1132B203F0598F0FC01EE0FFF1F880F991F880FD7
S1132B30991F880F991FE80FF91FEC5CF94FC082A9
S1132B40D182E282F38281E080874F5F443008F4CF
S1132B5091CFFF91EF919F918F914F913F912F9141
S1132B601F910F91FF90EF90DF90CF900F900BBECD
S1132B700F900FBE0F901F90189587B7806187BF85
S1132B8008958FB58C7F8FBD8EB5887E8EBD8EB532
S1132B908A608EBDEAE7F0E08081807E808383E0F6
S1132BA08BBD88EE8ABD1DBC1CBC86B78F7E86BFDC
S1132BB0E4CF0895FC01F8944483558366837783B6
S1132BC0108211821282138281E0818710867894A8
S1132BD00895FC01808508951F920F920FB60F92FD
S1132BE011240BB60F922F933F934F935F936F93E0
S1132BF07F938F939F93AF93BF93EF93FF9380E55E
S1132C0091E0FEDE892B21F48AB18F7D8AB904C05C
S1132C1080E591E000DF8CB9FF91EF91BF91AF9116
S1132C209F918F917F916F915F914F913F912F91E0
S1132C300F900BBE0F900FBE0F901F9018951F9210
S1132C400F920FB60F9211240F900FBE0F901F908A
S1132C5018951F920F920FB60F9211240F900FBE6A
S1132C600F901F9018951F920F920FB60F92112478
S1132C700F900FBE0F901F9018951092900088E04F
S1132C8089B982E08BB988E18AB986E0809395009E
S1132C900895462FBC0180E591E086DE8AB180620A
S1132CA08AB9089578940895F8940895CF93DF939A
S1132CB0CDB7DEB7AE014B5F5F4FFA016191719101
S1132CC0AF01809184089091850833D0DF91CF9132
S1132CD008950F931F93CF93DF93E0918408F091AD
S1132CE08508238121FF1BC08C01D0E0C0E0F801DE
S1132CF081918F016091840870918508DB01189699
S1132D00ED91FC911997882331F00995892B79F37A
S1132D10DFEFCFEFECCF8AE00995892B19F08FEF25
S1132D209FEF02C08D2F9C2FDF91CF911F910F91A8
S1132D3008952F923F924F925F926F927F928F925B
S1132D409F92AF92BF92CF92DF92EF92FF920F9336
S1132D501F93CF93DF93CDB7DEB72B970FB6F894BD
S1132D60DEBF0FBECDBF6C017B018A01FC0117825F
S1132D701682838181FFBFC1CE0101963C01F60119
S1132D809381F70193FD859193FF81917F018823BE
S1132D9009F4ADC1853239F493FD859193FF819196
S1132DA07F01853221F4B60190E0D6D1E8CF912C91
S1132DB0212C312CFFE1F315D8F08B3279F038F463
S1132DC0803279F08332A1F4232D20611DC08D322D
S1132DD061F0803369F4232D216016C0832D826055
S1132DE0382EE32DE4603E2E2AC0F32DF8601DC07A
S1132DF037FC2DC020ED280F2A3040F08E32B9F474
S1132E0036FC75C1232D2064322E19C036FE06C04F
S1132E108AE0989E200D1124922E11C0EAE02E9E85
S1132E20200D1124222EF32DF0623F2E08C08C3683
S1132E3021F4832D8068382E02C0883641F4F701CE
S1132E4093FD859193FF81917F018111B3CF982FD9
S1132E509F7D9554933028F40C5F1F4F9FE3998313
S1132E600DC0833631F0833771F0833509F055C0D6
S1132E7020C0F801808189830E5F1F4F88248394CA
S1132E80912C530112C02801F2E04F0E511CF8019D
S1132E90A080B18036FE03C0692D70E002C06FEFE0
S1132EA07FEFC5014ED14C018201F32DFF773F2EF8
S1132EB015C0280122E0420E511CF801A080B18007
S1132EC036FE03C0692D70E002C06FEF7FEFC501CD
S1132ED02DD14C01F32DF0683F2E820133FC19C033
S1132EE0822D90E088169906A0F4B60180E290E065
S1132EF033D12A94F5CFF50137FC859137FE8191C2
S1132F005F01B60190E028D121102A9421E0821AB1
S1132F1091088114910479F7E1C0843611F089365F
S1132F2039F5F80137FE07C0608171818281938190
S1132F300C5F1F4F08C060817181072E000C880B45
S1132F40990B0E5F1F4FF32DFF763F2E97FF09C09D
S1132F5090958095709561957F4F8F4F9F4FF06846
S1132F603F2E2AE030E0A30133D1882E861844C0D6
S1132F70853731F4232D2F7EB22E2AE030E025C090
S1132F80932D997FB92E8F36C1F018F4883579F0D6
S1132F90AEC0803719F0883721F0A9C0E92FE0616D
S1132FA0BE2EB4FE0DC0FB2DF460BF2E09C034FE4E
S1132FB00AC0292F2660B22E06C028E030E005C0E2
S1132FC020E130E002C020E132E0F801B7FE07C0A2
S1132FD060817181828193810C5F1F4F06C0608183
S1132FE0718180E090E00E5F1F4FA301F1D0882E25
S1132FF08618FB2DFF773F2E36FE0DC0232D2E7F26
S1133000A22E891458F434FE0BC032FC09C0832D5F
S11330108E7EA82E05C0B82CA32C03C0B82C01C0EA
S1133020B92CA4FE0FC0FE01E80DF11D8081803390
S113303021F49A2D997EA92E09C0A2FE06C0B3944C
S1133040B39404C08A2D867809F0B394A3FC10C00D
S1133050A0FE06C0B21480F4280C922C9B180DC05C
S1133060B21458F4B60180E290E076D0B394F8CF6D
S1133070B21418F42B1802C0982C212CA4FE0FC0F3
S1133080B60180E390E068D0A2FE16C0A1FC03C0A4
S113309088E790E002C088E590E0B6010CC08A2D74
S11330A0867851F0A1FE02C08BE201C080E2A7FC49
S11330B08DE2B60190E050D0891430F4B60180E37B
S11330C090E04AD09A94F8CF8A94F301E80DF11D68
S11330D08081B60190E040D08110F6CF222009F41F
S11330E04ECEB60180E290E037D02A94F7CFF601B5
S11330F08681978102C08FEF9FEF2B960FB6F894CD
S1133100DEBF0FBECDBFDF91CF911F910F91FF9016
S1133110EF90DF90CF90BF90AF909F908F907F9073
S11331206F905F904F903F902F900895FC01059011
S1133130615070400110D8F7809590958E0F9F1FB5
S11331400895FC016150704001900110D8F78095FA
S113315090958E0F9F1F08950F931F93CF93DF9326
S1133160FB01238121FD03C08FEF9FEF2CC022FFC1
S113317016C046815781248135814217530744F490
S1133180A081B1819D012F5F3F4F318320838C93B8
S1133190268137812F5F3F4F3783268314C08B01ED
S11331A0EC01FB010084F185E02D0995892BE1F602
S11331B0D80116968D919C911797019617969C931A
S11331C08E931697CE01DF91CF911F910F910895A1
S11331D0FA01AA27283051F1203181F1E8946F9344
S11331E06E7F6E5F7F4F8F4F9F4FAF4FB1E03ED0EA
S11331F0B4E03CD0670F781F891F9A1FA11D680F88
S1133200791F8A1F911DA11D6A0F711D811D911DBA
S1133210A11D20D009F468943F912AE0269F11242F
S11332203019305D3193DEF6CF010895462F477093
S1133230405D4193B3E00FD0C9F7F6CF462F4F70EE
S1133240405D4A3318F0495D31FD4052419302D04C
S1133250A9F7EACFB4E0A6959795879577956795F2
S1133260BA95C9F700976105710508959B01AC01F2
S11332700A2E06945795479537952795BA95C9F719
S1133280620F731F841F951FA01D0895F894FFCF2C
S113329000C001015735333030000000850986092C
S11332A08709880989098C0900000000860B550BE1
S11332B0020B57495A6E657400000A000000FFFFB4
S11332C0FFFF00000002000000007E140000000068
S11332D0080808080808080808080808080808086A
S11332E000007A060000000082060D0A3E205365A5
S11332F06E6420444843505F4445434C494E450D59
S11333000044484350206D657373616765203A201B
S113331025642E25642E25642E2564282564292001
S113332025642072656365697665642E200D0A0044
S11333304E6F204D792044484350204D657373618E
S113334067652E2054686973206D657373616765C2
S11333502069732069676E6F7265642E0D00416E7B
S11333606F746865722044484350207365766572B3
S11333702073656E64206120726573706F6E73656F
S1133380206D6573736167652E20546869732069C5
S1133390732069676E6F7265642E0D004348454360
S11333A04B5F49505F434F4E464C494354000D0A0E
S11333B03E20436865636B206C65617365642049D6
S11333C050202D204F4B0D003E2053656E64204449
S11333D04843505F444953434F5645520D003E20E5
S11333E053656E6420444843505F524551554553DC
S11333F0540D003C3C74696D656F75743E3E2073DA
S113340074617465203A2053544154455F444843E1
S1133410505F444953434F5645520D003C3C746938
S11334206D656F75743E3E207374617465203A2037
S113343053544154455F444843505F5245515545A8
S113344053540D003C3C74696D656F75743E3E20A9
S11334507374617465203A2053544154455F444861
S113346043505F5245524551554553540D003E203B
S11334705265636569766520444843505F4F46460C
S113348045520D003E2052656365697665204448C7
S113349043505F41434B0D003E205265636569769E
S11334A06520444843505F4E41434B0D003E204D40
S11334B061696E7461696E73207468652049502077
S11334C061646472657373200D003E495020636823
S11334D0616E6765642E0D003E4950206973206358
S11334E06F6E74696E7565642E0D003E20526563BF
S11334F06569766520444843505F4E41434B2C2018
S11335004661696C656420746F206D61696E7461D5
S1133510696E2069700D00576520617265207374AF
S10F3520617274696E672E2E2E0D00007F
S9030000FC
